S01700004763634170706C69636174696F6E312E737265635B
S11300001DC02FC02EC02DC02CC02BC02AC029C09B
S113001028C027C026C025C024C023C022C021C0B8
S113002020C01FC01EC01DC01CC01BC01AC019C0E8
S113003018C017C016C015C014C013C011241FBEA9
S1130040CFEFD2E0DEBFCDBF11E0A0E0B1E0E2EF40
S1130050F6E002C005900D92A031B107D9F722D085
S113006046C3CECF83E08093820080E480938100F6
S1130070E5E8F0E080818861808330918600E4E8DF
S1130080F0E0208181E090E002C0880F991F3A954A
S1130090E2F78660822B808308958091860085FF35
S11300A0FCCF0895CF93DF93CDB7DEB767970FB634
S11300B0F894DEBF0FBECDBFD5DF80E0C82E81E04F
S11300C0D82E8E01025F1F4F4E0127E1820E911C34
S11300D09AE0E92E91E0F92ECE0101965C01772495
S11300E07A949FE729EA83E0915020408040E1F729
S11300F000C000001F921F92DF92CF921F930F93B4
S113010025D0F8010F900F900F900F900F900F9043
S113011080E091918927E815F905D9F7282F082E51
S1130120000C330B3F938F931F930F93FF92EF9227
S1130130BF92AF920BD0B1DF8091700070927000CB
S11301400FB6F894DEBF0FBECDBFCBCFAEE0B0E0AC
S1130150EBEAF0E0A3C20D891E8986E08C831A8342
S113016009838FEF9FE79E838D83AE01475E5F4FC8
S11301706F89788DCE01019609D02F813885F801D9
S1130180E20FF31F10822E96E4E0A4C2ACE0B0E0CC
S1130190EBECF0E075C27C016B018A01FC01178273
S11301A01682838181FFB0C1CE0101964C01F70113
S11301B09381F60193FD859193FF81916F018823CB
S11301C009F49EC1853239F493FD859193FF8191A1
S11301D06F01853221F4B70190E0B1D1E8CF512C01
S11301E0312C20E02032A0F48B3269F030F48032DC
S11301F059F0833269F420612CC08D3239F0803398
S113020039F4216026C02260246023C0286021C004
S113021027FD27C030ED380F3A3078F426FF06C0AA
S1130220852D6AE024D2582E530E13C0832D6AE024
S11302301ED2382E330E20620CC08E3221F426FDDD
S11302405FC1206406C08C3611F4206802C0883671
S113025041F4F60193FD859193FF81916F01811122
S1130260C1CF982F9F7D9554933028F40C5F1F4F76
S1130270FFE3F9830DC0833631F0833771F08335A2
S113028009F057C021C0F801808189830E5F1F4F98
S113029044244394512C540114C03801F2E06F0EED
S11302A0711CF801A080B18026FF03C0652D70E0A9
S11302B002C06FEF7FEFC5012C8736D12C0183017B
S11302C02C852F77222E16C03801F2E06F0E711C98
S11302D0F801A080B18026FF03C0652D70E002C044
S11302E06FEF7FEFC5012C8714D12C012C8520687A
S11302F0222E830123FC19C0832D90E04816590651
S1130300A0F4B70180E290E01AD13A94F5CFF50158
S113031027FC859127FE81915F01B70190E00FD101
S113032031103A94F1E04F1A51084114510479F70D
S1130330DEC0843611F0893631F5F80127FF07C095
S113034060817181828193810C5F1F4F08C060813D
S11303507181072E000C880B990B0E5F1F4F2F76AF
S1130360722E97FF09C090958095709561957F4F87
S11303708F4F9F4F2068722E2AE030E0A40117D1DE
S1130380A82EA81843C0853729F42F7EB22E2AE060
S113039030E025C0F22FF97FBF2E8F36C1F018F45C
S11303A0883579F0ADC0803719F0883721F0A8C0BE
S11303B02F2F2061B22EB4FE0DC08B2D8460B82E79
S11303C009C024FF0AC09F2F9660B92E06C028E0FA
S11303D030E005C020E130E002C020E132E0F80165
S11303E0B7FE07C060817181828193810C5F1F4FCA
S11303F006C06081718180E090E00E5F1F4FA40110
S1130400D6D0A82EA818FB2DFF777F2E76FE0BC022
S1130410372D3E7FA51450F474FE0AC072FC08C048
S1130420372D3E7E05C0BA2C372D03C0BA2C01C02F
S1130430B52C34FF0DC0FE01EA0DF11D808180331F
S113044011F4397E09C032FF06C0B394B39404C0DA
S1130450832F867809F0B39433FD12C030FF06C0B1
S11304605A2CB31418F4530C5B18B32CB31460F463
S1130470B70180E290E03C8762D0B3943C85F6CF2C
S1130480B31410F43B1801C0312C34FF11C0B70170
S113049080E390E03C8753D03C8532FF16C031FDA9
S11304A003C088E790E002C088E590E0B7010CC083
S11304B0832F867851F031FF02C08BE201C080E2C5
S11304C037FD8DE2B70190E03AD0A51430F4B701BE
S11304D080E390E034D05A94F8CFAA94F401EA0D62
S11304E0F11D8081B70190E02AD0A110F6CF33200E
S11304F009F45DCEB70180E290E021D03A94F7CFC1
S1130500F7018681978102C08FEF9FEF2C96E2E17D
S1130510D3C0FC010590615070400110D8F780955C
S113052090958E0F9F1F0895FC01615070400190BB
S11305300110D8F7809590958E0F9F1F08950F9303
S11305401F93CF93DF93FB01238121FD03C08FEF22
S11305509FEF28C022FF16C0468157812481358130
S11305604217530744F4A081B1819D012F5F3F4F8F
S1130570318320838C93268137812F5F3F4F3783CC
S1130580268310C0EB01092F182F0084F185E02D7C
S11305900995892BE1F68E819F8101969F838E8335
S11305A0812F902FDF91CF911F910F910895FA0120
S11305B0AA27283061F1203191F1E8946F936E7F7E
S11305C06E5F7F4F8F4F9F4FAF4FB1E040D0B4E08D
S11305D03ED0670F781F891F9A1FA11D680F791FCE
S11305E08A1F911DA11D6A0F711D811D911DA11DE1
S11305F022D009F468943F91062E000C3019000CA7
S1130600000C3019305D3193CEF6CF010895462F9A
S11306104770405D4193B3E00FD0C9F7F6CF462F42
S11306204F70405D4A3318F0495D31FD40524193AB
S113063002D0A9F7EACFB4E0A69597958795779568
S11306406795BA95C9F700976105710508959B01EF
S1130650AC010A2E06945795479537952795BA9578
S1130660C9F7620F731F841F951FA01D08950024EE
S113067080FD060E660F11F08695D1F7802D089542
S11306802F923F924F925F926F927F928F929F929E
S1130690AF92BF92CF92DF92EF92FF920F931F938C
S11306A0CF93DF93CDB7DEB7CA1BDB0B0FB6F8943D
S11306B0DEBF0FBECDBF09942A88398848885F847D
S11306C06E847D848C849B84AA84B984C884DF80EE
S11306D0EE80FD800C811B81AA81B981CE0FD11DD2
S11306E00FB6F894DEBF0FBECDBFED010895F894A8
S10506F0FFCF36
S11306F2563B524230253033690025732578000079
S9030000FC
